S016000041746D65676133324D315F43414E2E73726563AB
S11300000C943E000C9450000C9450000C9450003E
S11300100C9450000C9450000C9450000C9450001C
S11300200C9450000C9450000C9450000C9450000C
S11300300C9450000C9450000C9450000C945000FC
S11300400C9450000C9450000C9491000C945000AB
S11300500C9450000C9450000C9450000C945000DC
S11300600C9450000C9450000C9450000C945000CC
S11300700C9450000C9450000C94500011241FBE9A
S1130080CFEFD8E0DEBFCDBF21E0A0E0B1E001C0FA
S11300901D92A230B207E1F70E94AB000C94B000AD
S11300A00C94000080E00DC0982F9295907F90935F
S11300B0ED00EEEEF0E001C01192E83FF105E0F34F
S11300C08F5F863088F3089581E08093D80086E0BE
S11300D08093E20084E08093E30083E18093E40072
S11300E081E008950E9464008823D1F00E945200A8
S11300F081E08093DE0080EA8093DB001092F700B9
S11301001092F6001092F5001092F400E8EDF0E081
S1130110808182608083109201011092000181E04D
S113012008951F920F920FB60F9211248F939F93ED
S113013080910001909101010196909301018093B7
S113014000019F918F910F900FBE0F901F901895F3
S11301500E947200089581E00E94A8007894FFCF65
S1070160F894FFCF3D
S9030000FC
