:100000000C9449000C945B000C945B000C945B0016
:100010000C945B000C945B000C945B000C945B00F4
:100020000C945B000C945B000C945B000C945B00E4
:100030000C945B000C945B000C945B000C940F1010
:100040000C945B000C945B000C946B0D0C94240FCF
:100050000C945B000C945B000C945B000C945B00B4
:100060000C945B000C945B000C945B000C945B00A4
:100070000C945B000C945B000C945B002102170352
:100080000104CF045205E2057C06A207D508120A36
:10009000C80A11241FBECFEFD8E0DEBFCDBF21E0DC
:1000A000A0E0B1E001C01D92A137B207E1F70E94C4
:1000B000B10F0C94C7100C940000CF93DF9300D0C5
:1000C0001F92CDB7DEB719821DC08DEE90E0298159
:1000D0002295207FFC0120838EEE90E09B838A8313
:1000E00009C08A819B81FC0110828A819B810196D3
:1000F0009B838A838A819B81883F910590F38981C4
:100100008F5F89838981863000F300000F900F9004
:100110000F90DF91CF910895CF93DF9300D0CDB7AB
:10012000DEB78DEE90E0FC0180818A8319821BC0CE
:100130008DEE90E029812295207FFC0120838FEEB7
:1001400090E0FC018081882F90E0807C9927892BAA
:1001500039F48DEE90E02A81FC01208389810CC066
:1001600089818F5F89838981863010F38DEE90E0DD
:100170002A81FC0120838FEF0F900F90DF91CF91A8
:100180000895CF93DF9300D0CDB7DEB78FEE90E028
:10019000FC018081882F90E0807C9927892B11F4C5
:1001A0008FEF1CC08EEE90E0FC01808189838981F5
:1001B000807E8A838A81803231F08A81803419F08E
:1001C0008A81803A11F48A8109C089818F718A837A
:1001D0008A81882311F08A8101C080E00F900F90FE
:1001E000DF91CF910895CF93DF9300D01F92CDB7C9
:1001F000DEB79B838A83198210C08981882F90E0A3
:100200002A813B81820F931F2AEF30E0F901208180
:10021000FC01208389818F5F89838981282F30E0C9
:100220008FEE90E0FC018081882F90E08F709927FD
:100230002817390714F300000F900F900F90DF91EB
:10024000CF910895CF93DF931F92CDB7DEB7898307
:1002500088ED90E021E0FC01208382EE90E026E032
:10026000FC01208383EE90E024E0FC01208384EEF7
:1002700090E023E1FC01208381E00F90DF91CF919A
:100280000895CF93DF931F92CDB7DEB7898389811D
:100290000E942201882311F480E050C00E945D007A
:1002A0008DEE90E0FC0110828FEE90E02FEE30E0BA
:1002B000F90120812F73FC0120838FEE90E02FEE57
:1002C00030E0F90120812068FC0120838BED90E073
:1002D00020EAFC0120838EED90E02EED30E0F90164
:1002E00020812160FC0120838FED90E0FC011082D1
:1002F00081EE90E0FC01108280EE90E0FC01108223
:1003000087EF90E0FC01108286EF90E0FC01108204
:1003100085EF90E0FC01108284EF90E0FC011082F8
:1003200088ED90E028ED30E0F90120812260FC01A9
:100330002083109202011092010181E00F90DF9161
:10034000CF910895CF93DF93CDB7DEB72A970FB63D
:10035000F894DEBF0FBECDBF9A87898789859A85BD
:10036000FC0181818C3039F589859A85FC01818574
:100370008036D9F48DEE90E029853A85F901208107
:100380002295207FFC0120838FEE90E02FEE30E05D
:10039000F90120812F73FC0120838EEE90E0FC0197
:1003A000108289859A85FC01108289859A85FC01D5
:1003B00011860C942E0C0E948C008C838C818F3FB4
:1003C00011F40C94270C89859A8520E6FC0121877D
:1003D00089859A852C81FC0120838DEE90E02C810B
:1003E0002295207FFC0120838EEE90E09B838A8300
:1003F00009C08A819B81FC0110828A819B810196C0
:100400009B838A838A819B81883F910590F38985AC
:100410009A85FC018181882F90E0092E000CAA0B9F
:10042000BB0B41E050E02AE030E0841B950B28171D
:10043000390710F40C94210C825C9F4FFC010C9442
:10044000C11089859A85FC018385882309F469C0D8
:1004500083EF90E029853A852E5F3F4F2D5F3F4F18
:10046000F9012081422F440F440F440F29853A851A
:100470002E5F3F4F2E5F3F4FF90120812295269539
:100480002770240FFC01208382EF90E029853A85B4
:100490002E5F3F4F2E5F3F4FF9012081422F440FC7
:1004A000440F440F29853A852E5F3F4F2F5F3F4F02
:1004B000F9012081229526952770240FFC012083C5
:1004C00081EF90E029853A852E5F3F4F2F5F3F4FA8
:1004D000F9012081422F440F440F440F29853A85AA
:1004E0002E5F3F4FF9012081229526952770240F1A
:1004F000FC01208380EF90E029853A852E5F3F4FF5
:10050000F9012081220F220F220FFC0120838FEEA0
:1005100090E02FEE30E0F90120812061FC01208382
:1005200030C083EF90E029853A852E5F3F4F2F5FE3
:100530003F4FF9012081422F4295440F407E29858B
:100540003A852E5F3F4FF901208126952695269505
:10055000240FFC01208382EF90E029853A852E5FED
:100560003F4FF90120812295220F207EFC0120833C
:100570008FEE90E02FEE30E0F90120812F7EFC011C
:100580002083198213C08AEF90E029853A85F9010A
:10059000478150852981222F30E0240F351FF90132
:1005A0002081FC01208389818F5F898389859A85D9
:1005B000FC0196818981891730F389859A85FC0130
:1005C0008285882351F080EF90E020EF30E0F90140
:1005D00020812460FC01208309C080EF90E020EF9F
:1005E00030E0F90120812B7FFC0120838FEE90E029
:1005F0002FEE30E0F901408129853A85F901268105
:10060000242BFC0120838FEE90E02FEE30E0F901E7
:1006100020812F73FC0120838FEE90E02FEE30E0DD
:10062000F90120812064FC0120830C942E0C898523
:100630009A85FC018385882309F469C083EF90E0E3
:1006400029853A852E5F3F4F2D5F3F4FF90120816D
:10065000422F440F440F440F29853A852E5F3F4FA8
:100660002E5F3F4FF9012081229526952770240F98
:10067000FC01208382EF90E029853A852E5F3F4F71
:100680002E5F3F4FF9012081422F440F440F440F4A
:1006900029853A852E5F3F4F2F5F3F4FF90120811B
:1006A000229526952770240FFC01208381EF90E08E
:1006B00029853A852E5F3F4F2F5F3F4FF9012081FB
:1006C000422F440F440F440F29853A852E5F3F4F38
:1006D000F9012081229526952770240FFC012083A3
:1006E00080EF90E029853A852E5F3F4FF901208108
:1006F000220F220F220FFC0120838FEE90E02FEEBD
:1007000030E0F90120812061FC01208330C083EFBB
:1007100090E029853A852E5F3F4F2F5F3F4FF901CB
:100720002081422F4295440F407E29853A852E5FD5
:100730003F4FF9012081269526952695240FFC012F
:10074000208382EF90E029853A852E5F3F4FF901A3
:1007500020812295220F207EFC0120838FEE90E0E5
:100760002FEE30E0F90120812F7EFC0120831982D9
:1007700013C08AEF90E029853A85F90147815085B9
:100780002981222F30E0240F351FF9012081FC013F
:10079000208389818F5F898389859A85FC01968171
:1007A0008981891730F389859A85FC01128680EF4B
:1007B00090E020EF30E0F90120812B7FFC012083C5
:1007C0008FEE90E02FEE30E0F901408129853A85E7
:1007D000F9012681242BFC0120838FEE90E02FEE7F
:1007E00030E0F90120812F73FC0120838FEE90E02F
:1007F0002FEE30E0F90120812064FC0120830C946D
:100800002E0C89859A85FC018385882309F469C0AB
:1008100083EF90E029853A852E5F3F4F2D5F3F4F54
:10082000F9012081422F440F440F440F29853A8556
:100830002E5F3F4F2E5F3F4FF90120812295269575
:100840002770240FFC01208382EF90E029853A85F0
:100850002E5F3F4F2E5F3F4FF9012081422F440F03
:10086000440F440F29853A852E5F3F4F2F5F3F4F3E
:10087000F9012081229526952770240FFC01208301
:1008800081EF90E029853A852E5F3F4F2F5F3F4FE4
:10089000F9012081422F440F440F440F29853A85E6
:1008A0002E5F3F4FF9012081229526952770240F56
:1008B000FC01208380EF90E029853A852E5F3F4F31
:1008C000F9012081220F220F220FFC0120838FEEDD
:1008D00090E02FEE30E0F90120812061FC012083BF
:1008E00030C083EF90E029853A852E5F3F4F2F5F20
:1008F0003F4FF9012081422F4295440F407E2985C8
:100900003A852E5F3F4FF901208126952695269541
:10091000240FFC01208382EF90E029853A852E5F29
:100920003F4FF90120812295220F207EFC01208378
:100930008FEE90E02FEE30E0F90120812F7EFC0158
:10094000208389859A8521E0FC01228780EF90E051
:1009500020EF30E0F90120812460FC0120838FEE3C
:1009600090E02FEE30E0F901408129853A85F901C8
:100970002681242BFC0120838FEE90E02FEE30E0C7
:10098000F90120812F73FC0120838FEE90E02FEE80
:1009900030E0F90120812064FC0120835FC71D82C3
:1009A0001E821F82188627EF30E0CE01059603963F
:1009B000FC018081482F440F440F440FCE0105965F
:1009C0000296FC018081829586958770840FF901DB
:1009D000808326EF30E0CE0105960296FC018081EF
:1009E000482F440F440F440FCE0105960196FC0199
:1009F0008081829586958770840FF901808325EF29
:100A000030E0CE0105960196FC018081482F440F0D
:100A1000440F440FCE010596FC0180818295869596
:100A20008770840FF901808384EF90E09E012B5F33
:100A30003F4FF9012081220F220F220FFC0120835A
:100A40008FEE90E02FEE30E0F901408129853A8564
:100A5000F9012681242BFC01208384EF90E024EF10
:100A600030E0F90120812B7FFC01208384EF90E0AE
:100A700024EF30E0F90120812E7FFC0120838FEEEE
:100A800090E02FEE30E0F90120812F73FC012083EC
:100A90008FEE90E02FEE30E0F90120812068FC011C
:100AA0002083DCC61D821E821F82188627EF30E05D
:100AB000CE0105960396FC018081482F440F440F18
:100AC000440FCE0105960296FC01808182958695A1
:100AD0008770840FF901808326EF30E0CE01059600
:100AE0000296FC018081482F440F440F440FCE0131
:100AF00005960196FC018081829586958770840F0A
:100B0000F901808325EF30E0CE0105960196FC01C6
:100B10008081482F440F440F440FCE010596FC01FD
:100B20008081829586958770840FF901808384EF98
:100B300090E09E012B5F3F4FF9012081220F220F91
:100B4000220FFC0120838FEE90E02FEE30E0F901C0
:100B5000408129853A85F9012681242BFC012083D7
:100B600089859A85FC01128684EF90E024EF30E0BD
:100B7000F90120812460FC01208380EF90E020EFC8
:100B800030E0F90120812B7FFC01208384EF90E08D
:100B900024EF30E0F90120812E7FFC0120838FEECD
:100BA00090E02FEE30E0F90120812F73FC012083CB
:100BB0008FEE90E02FEE30E0F90120812068FC01FB
:100BC00020834CC61D821E821F82188627EF30E0CC
:100BD000CE0105960396FC018081482F440F440FF7
:100BE000440FCE0105960296FC0180818295869580
:100BF0008770840FF901808326EF30E0CE010596DF
:100C00000296FC018081482F440F440F440FCE010F
:100C100005960196FC018081829586958770840FE8
:100C2000F901808325EF30E0CE0105960196FC01A5
:100C30008081482F440F440F440FCE010596FC01DC
:100C40008081829586958770840FF901808384EF77
:100C500090E09E012B5F3F4FF9012081220F220F70
:100C6000220FFC0120838FEE90E02FEE30E0F9019F
:100C7000408129853A85F9012681242BFC012083B6
:100C800089859A8521E0FC01228784EF90E024EF9A
:100C900030E0F90120812460FC01208380EF90E0A6
:100CA00020EF30E0F90120812460FC0120838FEEE9
:100CB00090E02FEE30E0F90120812F7DFC012083B0
:100CC00084EF90E024EF30E0F90120812E7FFC01D9
:100CD00020838FEE90E02FEE30E0F90120812F731A
:100CE000FC0120838FEE90E02FEE30E0F9012081AF
:100CF0002068FC012083B2C589859A85FC01838523
:100D0000882309F469C083EF90E029853A852E5F36
:100D10003F4F2D5F3F4FF9012081422F440F440F79
:100D2000440F29853A852E5F3F4F2E5F3F4FF901D3
:100D30002081229526952770240FFC01208382EFC5
:100D400090E029853A852E5F3F4F2E5F3F4FF90196
:100D50002081422F440F440F440F29853A852E5F8E
:100D60003F4F2F5F3F4FF901208122952695277035
:100D7000240FFC01208381EF90E029853A852E5FC6
:100D80003F4F2F5F3F4FF9012081422F440F440F07
:100D9000440F29853A852E5F3F4FF9012081229526
:100DA00026952770240FFC01208380EF90E0298591
:100DB0003A852E5F3F4FF9012081220F220F220F2B
:100DC000FC0120838FEE90E02FEE30E0F9012081CE
:100DD0002061FC01208330C083EF90E029853A85B3
:100DE0002E5F3F4F2F5F3F4FF9012081422F4295E9
:100DF000440F407E29853A852E5F3F4FF9012081BF
:100E0000269526952695240FFC01208382EF90E0FD
:100E100029853A852E5F3F4FF90120812295220FC7
:100E2000207EFC0120838FEE90E02FEE30E0F90170
:100E300020812F7EFC0120838FEF9FEFDC018D83CB
:100E40009E83AF83B88727EF30E0CE0105960396E7
:100E5000FC018081482F440F440F440FCE010596BA
:100E60000296FC018081829586958770840FF90136
:100E7000808326EF30E0CE0105960296FC0180814A
:100E8000482F440F440F440FCE0105960196FC01F4
:100E90008081829586958770840FF901808325EF84
:100EA00030E0CE0105960196FC018081482F440F69
:100EB000440F440FCE010596FC01808182958695F2
:100EC0008770840FF901808384EF90E09E012B5F8F
:100ED0003F4FF9012081220F220F220FFC012083B6
:100EE0008FEE90E02FEE30E0F901408129853A85C0
:100EF000F9012681242BFC01208384EF90E024EF6C
:100F000030E0F90120812B7FFC01208384EF90E009
:100F100024EF30E0F90120812160FC0120838FEE75
:100F200090E02FEE30E0F90120812F73FC01208347
:100F30008FEE90E02FEE30E0F90120812068FC0177
:100F400020838CC489859A85FC018385882309F4D4
:100F500069C083EF90E029853A852E5F3F4F2D5F72
:100F60003F4FF9012081422F440F440F440F298540
:100F70003A852E5F3F4F2E5F3F4FF901208122952A
:100F800026952770240FFC01208382EF90E02985AD
:100F90003A852E5F3F4F2E5F3F4FF9012081422F50
:100FA000440F440F440F29853A852E5F3F4F2F5F32
:100FB0003F4FF9012081229526952770240FFC01CF
:100FC000208381EF90E029853A852E5F3F4F2F5F88
:100FD0003F4FF9012081422F440F440F440F2985D0
:100FE0003A852E5F3F4FF901208122952695277083
:100FF000240FFC01208380EF90E029853A852E5F45
:101000003F4FF9012081220F220F220FFC01208384
:101010008FEE90E02FEE30E0F90120812061FC019D
:10102000208330C083EF90E029853A852E5F3F4FC3
:101030002F5F3F4FF9012081422F4295440F407EA0
:1010400029853A852E5F3F4FF90120812695269507
:101050002695240FFC01208382EF90E029853A85B4
:101060002E5F3F4FF90120812295220F207EFC0147
:1010700020838FEE90E02FEE30E0F90120812F7E6B
:10108000FC0120838FEF9FEFDC018D839E83AF8374
:10109000B88727EF30E0CE0105960396FC018081EA
:1010A000482F440F440F440FCE0105960296FC01D1
:1010B0008081829586958770840FF901808326EF61
:1010C00030E0CE0105960296FC018081482F440F46
:1010D000440F440FCE0105960196FC018081829554
:1010E00086958770840FF901808325EF30E0CE016B
:1010F00005960196FC018081482F440F440F440F50
:10110000CE010596FC018081829586958770840FBB
:10111000F901808384EF90E09E012B5F3F4FF9013E
:101120002081220F220F220FFC0120838FEE90E0FE
:101130002FEE30E0F901408129853A85F9012681B9
:10114000242BFC01208389859A85FC01128684EF7B
:1011500090E024EF30E0F90120812460FC0120833D
:1011600080EF90E020EF30E0F90120812B7FFC013F
:10117000208384EF90E024EF30E0F90120812160AA
:10118000FC0120838FEE90E02FEE30E0F90120810A
:101190002F73FC0120838FEE90E02FEE30E0F901F9
:1011A00020812068FC01208359C389859A85FC0130
:1011B0008385882309F469C083EF90E029853A8507
:1011C0002E5F3F4F2D5F3F4FF9012081422F440F8B
:1011D000440F440F29853A852E5F3F4F2E5F3F4FC6
:1011E000F9012081229526952770240FFC01208388
:1011F00082EF90E029853A852E5F3F4F2E5F3F4F6B
:10120000F9012081422F440F440F440F29853A856C
:101210002E5F3F4F2F5F3F4FF9012081229526958A
:101220002770240FFC01208381EF90E029853A8507
:101230002E5F3F4F2F5F3F4FF9012081422F440F18
:10124000440F440F29853A852E5F3F4FF9012081D5
:10125000229526952770240FFC01208380EF90E0D3
:1012600029853A852E5F3F4FF9012081220F220FF9
:10127000220FFC0120838FEE90E02FEE30E0F90189
:1012800020812061FC01208330C083EF90E029851C
:101290003A852E5F3F4F2F5F3F4FF9012081422F4C
:1012A0004295440F407E29853A852E5F3F4FF901D4
:1012B0002081269526952695240FFC01208382EF18
:1012C00090E029853A852E5F3F4FF90120812295D4
:1012D000220F207EFC0120838FEE90E02FEE30E085
:1012E000F90120812F7EFC0120838FEF9FEFDC012D
:1012F0008D839E83AF83B88727EF30E0CE010596BC
:101300000396FC018081482F440F440F440FCE0107
:1013100005960296FC018081829586958770840FE0
:10132000F901808326EF30E0CE0105960296FC019C
:101330008081482F440F440F440FCE01059601963B
:10134000FC018081829586958770840FF9018083E6
:1013500025EF30E0CE0105960196FC018081482FF3
:10136000440F440F440FCE010596FC018081829505
:1013700086958770840FF901808384EF90E09E0149
:101380002B5F3F4FF9012081220F220F220FFC011A
:1013900020838FEE90E02FEE30E0F9014081298527
:1013A0003A85F9012681242BFC01208389859A85C1
:1013B00021E0FC01228784EF90E024EF30E0F90186
:1013C00020812460FC01208380EF90E020EF30E05A
:1013D000F90120812460FC0120838FEE90E02FEE44
:1013E00030E0F90120812F7DFC01208384EF90E023
:1013F00024EF30E0F90120812160FC0120838FEE91
:1014000090E02FEE30E0F90120812F73FC01208362
:101410008FEE90E02FEE30E0F90120812068FC0192
:1014200020831CC2198213C08AEF90E029853A8577
:10143000F901478150852981222F30E0240F351F83
:10144000F9012081FC01208389818F5F898389854F
:101450009A85FC0196818981891730F31D821E824D
:101460001F82188627EF30E0CE0105960396FC0117
:101470008081482F440F440F440FCE0105960296F9
:10148000FC018081829586958770840FF9018083A5
:1014900026EF30E0CE0105960296FC018081482FB0
:1014A000440F440F440FCE0105960196FC01808144
:1014B000829586958770840FF901808325EF30E04F
:1014C000CE0105960196FC018081482F440F440F00
:1014D000440FCE010596FC01808182958695877028
:1014E000840FF901808384EF90E09E012B5F3F4FD2
:1014F000F9012081220F220F220FFC0120838FEEA1
:1015000090E02FEE30E0F901408129853A85F9011C
:101510002681242BFC01208389859A8521E0FC010A
:10152000228784EF90E024EF30E0F90120812460ED
:10153000FC01208380EF90E020EF30E0F901208172
:101540002460FC0120838FEE90E02FEE30E0F90163
:1015500020812062FC01208384EF90E024EF30E0C2
:10156000F90120812E7FFC0120838FEE90E02FEE89
:1015700030E0F90120812F73FC0120838FEE90E091
:101580002FEE30E0F90120812068FC01208366C144
:1015900089859A85FC018385882309F469C083EFD6
:1015A00090E029853A852E5F3F4F2D5F3F4FF9012F
:1015B0002081422F440F440F440F29853A852E5F26
:1015C0003F4F2E5F3F4FF9012081229526952770CE
:1015D000240FFC01208382EF90E029853A852E5F5D
:1015E0003F4F2E5F3F4FF9012081422F440F440FA0
:1015F000440F29853A852E5F3F4F2F5F3F4FF901FA
:101600002081229526952770240FFC01208381EFED
:1016100090E029853A852E5F3F4F2F5F3F4FF901BC
:101620002081422F440F440F440F29853A852E5FB5
:101630003F4FF9012081229526952770240FFC0148
:10164000208380EF90E029853A852E5F3F4FF90196
:101650002081220F220F220FFC0120838FEE90E0C9
:101660002FEE30E0F90120812061FC01208330C0A1
:1016700083EF90E029853A852E5F3F4F2F5F3F4FE4
:10168000F9012081422F4295440F407E29853A85F9
:101690002E5F3F4FF9012081269526952695240F30
:1016A000FC01208382EF90E029853A852E5F3F4F31
:1016B000F90120812295220F207EFC0120838FEEEC
:1016C00090E02FEE30E0F90120812F7EFC01208395
:1016D000198213C08AEF90E029853A85F901478184
:1016E00050852981222F30E0240F351FF9012081F8
:1016F000FC01208389818F5F898389859A85FC011C
:1017000096818981891730F38FEF9FEFDC018D83FC
:101710009E83AF83B88727EF30E0CE01059603960E
:10172000FC018081482F440F440F440FCE010596E1
:101730000296FC018081829586958770840FF9015D
:10174000808326EF30E0CE0105960296FC01808171
:10175000482F440F440F440FCE0105960196FC011B
:101760008081829586958770840FF901808325EFAB
:1017700030E0CE0105960196FC018081482F440F90
:10178000440F440FCE010596FC0180818295869519
:101790008770840FF901808384EF90E09E012B5FB6
:1017A0003F4FF9012081220F220F220FFC012083DD
:1017B0008FEE90E02FEE30E0F901408129853A85E7
:1017C000F9012681242BFC01208389859A8521E05B
:1017D000FC01228784EF90E024EF30E0F9012081C2
:1017E0002460FC01208380EF90E020EF30E0F901DD
:1017F00020812460FC0120838FEE90E02FEE30E00A
:10180000F90120812062FC01208384EF90E024EF25
:1018100030E0F90120812160FC0120838FEE90E00F
:101820002FEE30E0F90120812F73FC0120838FEE31
:1018300090E02FEE30E0F90120812068FC01208348
:101840000DC089859A85FC011186000007C0898535
:101850009A852FE1FC0121878FEF01C080E02A9655
:101860000FB6F894DEBF0FBECDBFDF91CF910895C4
:10187000CF93DF9300D000D0CDB7DEB79C838B83AE
:101880008B819C81FC0181858A838A81882331F048
:101890008A818F3119F08A818F3F11F482E014C15F
:1018A0008DEE90E02B813C81F90120812295207FF3
:1018B000FC0120830E94C1008A838A81882F90E0E6
:1018C0008032910589F0813291051CF4892B49F011
:1018D000E5C08034910509F4CDC0803A910521F02E
:1018E000DDC081E08983EFC08FEE90E0FC01808154
:1018F000282F2F708B819C81FC0126838B819C81FA
:10190000FC01878190850E94F30080EF90E0FC014C
:101910008081882F90E0847099279595879595957B
:10192000879521E0892B09F420E08B819C81FC01C3
:1019300022878FEE90E0FC018081882F90E08071FB
:1019400099279595879595958795959587959595DB
:101950008795892B09F454C08B819C8121E0FC017F
:1019600023878B819C810296039623EF30E0F90157
:101970002081269526952695FC0120838B819C81CC
:101980000296029622EF30E0F9012081422F46951F
:101990004695469523EF30E0F90120812295220FEC
:1019A000207E240FFC0120838B819C81029601966E
:1019B00021EF30E0F9012081422F4695469546956A
:1019C00022EF30E0F90120812295220F207E240FA2
:1019D000FC0120838B819C81029620EF30E0F9018D
:1019E0002081422F46954695469521EF30E0F9013A
:1019F00020812295220F207E240FFC01208326C007
:101A00008B819C81FC0113868B819C8102960196BF
:101A100023EF30E0F9012081229526952770FC0103
:101A200020838B819C81029622EF30E0F901208196
:101A3000422F42954695477023EF30E0F90120810F
:101A4000220F220F220F240FFC0120838B819C8107
:101A50002A81FC0121878FEE90E02FEE30E0F90122
:101A600020812F73FC0120838EEE90E0FC01108218
:101A7000198229C08B819C812A81FC0121878FEEEC
:101A800090E02FEE30E0F90120812F73FC012083DC
:101A90008EEE90E0FC011082198215C08B819C8132
:101AA0002A81FC0121878FEE90E02FEE30E0F901D2
:101AB00020812F73FC0120838EEE90E0FC011082C8
:101AC00082E08983000089810F900F900F900F9022
:101AD000DF91CF9108951F920F9200905F000F92B7
:101AE00011240F931F932F933F934F935F936F9303
:101AF0007F938F939F93AF93BF93EF93FF93CF9376
:101B0000DF931F92CDB7DEB719828DEE90E0FC0116
:101B1000808189838DEE90E02CEE30E0F901208108
:101B2000207FFC0120838EEE90E0FC018081882FD5
:101B300090E080729927892B09F465C18FEE90E0BF
:101B4000FC018081882F90E0807199279595879579
:101B5000959587959595879595958795892B09F402
:101B600095C080910001282F30E0C901880F991F8E
:101B7000820F931F880F991F880F991F825F9E4FB6
:101B800021E0FC01208380910001282F30E0C90171
:101B9000880F991F820F931F880F991F880F991F15
:101BA00002968D5F9E4F039623EF30E0F90120816E
:101BB000269526952695FC01208380910001282FEB
:101BC00030E0C901880F991F820F931F880F991F5A
:101BD000880F991F02968D5F9E4F029622EF30E08C
:101BE000F9012081422F46954695469523EF30E036
:101BF000F90120812295220F207E240FFC012083F1
:101C000080910001282F30E0C901880F991F820FB1
:101C1000931F880F991F880F991F02968D5F9E4F03
:101C2000019621EF30E0F9012081422F469546953B
:101C3000469522EF30E0F90120812295220F207E87
:101C4000240FFC01208380910001282F30E0C9017E
:101C5000880F991F820F931F880F991F880F991F54
:101C600002968D5F9E4F20EF30E0F9012081422FD8
:101C700046954695469521EF30E0F9012081229561
:101C8000220F207E240FFC0120834DC08091000193
:101C9000282F30E0C901880F991F820F931F880FEA
:101CA000991F880F991F825F9E4FFC0110828091BF
:101CB0000001282F30E0C901880F991F820F931F60
:101CC000880F991F880F991F02968D5F9E4F01966E
:101CD00023EF30E0F9012081229526952770FC0141
:101CE000208380910001282F30E0C901880F991FBF
:101CF000820F931F880F991F880F991F02968D5F7F
:101D00009E4F22EF30E0F9012081422F4295469507
:101D1000477023EF30E0F9012081220F220F220FBC
:101D2000240FFC01208380910001082F10E00E9405
:101D3000C100282FC801880F991F800F911F880F9D
:101D4000991F880F991F845F9E4FFC01208380910B
:101D50000001282F30E08FEE90E0FC018081482FB9
:101D60004F70C901880F991F820F931F880F991F09
:101D7000880F991F875F9E4FFC014083809100016F
:101D8000282F30E080EF90E0FC018081882F90E0E8
:101D900084709927959587959595879541E0892B2E
:101DA00009F440E0C901880F991F820F931F880F23
:101DB000991F880F991F835F9E4FFC01408380917C
:101DC0000001282F30E0C901880F991F820F931F4F
:101DD000880F991F880F991F865F9E4FFC01808195
:101DE00091810E94F300809100018F5F8093000138
:101DF00080910001883011F4109200018FEE90E084
:101E000020E8FC0120838EEE90E0FC0110828DEE34
:101E100090E02981FC01208300000F90DF91CF9199
:101E2000FF91EF91BF91AF919F918F917F916F91B2
:101E30005F914F913F912F911F910F910F900092C1
:101E40005F000F901F9018951F920F9200905F00F7
:101E50000F921124CF93DF93CDB7DEB70000DF914F
:101E6000CF910F9000925F000F901F901895CF9325
:101E7000DF931F92CDB7DEB7898389810E9441012C
:101E800000000F90DF91CF910895EF92FF920F9392
:101E90001F93CF93DF93CDB7DEB760970FB6F8945B
:101EA000DEBF0FBECDBF0DB71EB78DB79EB77C018D
:101EB0008CEA91E0A0E0B0E08F839887A987BA8789
:101EC00081E0888B1F8682E08B8782E08E832B8562
:101ED000822F90E001979A838983822F90E02DB71B
:101EE0003EB7281B390B0FB6F8943EBF0FBE2DBF6F
:101EF0008DB79EB701969C838B838B819C812EEE40
:101F0000FC0120838B819C812FEFFC0121838B813D
:101F10009C819D878C870000CE0105960E94A201BE
:101F20008823D1F70000CE0105960E94380C81303D
:101F3000D1F30FB6F894FEBE0FBEEDBE00000FB693
:101F4000F8941EBF0FBE0DBF60960FB6F894DEBFAB
:101F50000FBECDBFDF91CF911F910F91FF90EF90FA
:101F60000895CF93DF93CDB7DEB781E00E94370F9E
:101F70000E94CB0F789480916301882F90E080714C
:101F80009927892BC1F3809163018F7E8093630130
:101F90000E94450FF0CFCF93DF93CDB7DEB71092FD
:101FA0006601109267011092680110926901109207
:101FB000700110926D0110926C0110926E011092DE
:101FC0006F01109265011092640110926B011092E2
:101FD0006A011092630187E490E029EFFC012083FD
:101FE0008EE690E02EE630E0F90120812260FC01CF
:101FF000208384E490E024E430E0F9012081226031
:10200000FC01208385E490E025E430E0F9012081A3
:102010002360FC0120830000DF91CF9108951F927F
:102020000F9200905F000F9211242F938F939F9334
:10203000AF93BF93CF93DF93CDB7DEB780916601A7
:1020400090916701A0916801B09169010196A11D6D
:10205000B11D8093660190936701A0936801B093CE
:102060006901809170018F5F8093700180916D0193
:102070008F5F80936D0180916C018F5F80936C0105
:1020800080916E018F5F80936E0180916F018F5FF1
:1020900080936F0180916401909165010196909306
:1020A00065018093640180916A0190916B010196B2
:1020B00090936B0180936A01809170018A3039F4AA
:1020C000109270018091630181608093630180911F
:1020D0006D01843139F410926D0180916301826049
:1020E0008093630180916C01823339F410926C010A
:1020F0008091630184608093630180916E018436D6
:1021000039F410926E0180916301886080936301BD
:1021100080916F018A3F39F410926F0180916301C1
:102120008061809363018091640190916501843F97
:10213000914049F41092650110926401809163010D
:1021400080628093630180916A0190916B01883E67
:10215000934049F410926B0110926A0180916301DF
:102160008064809363010000DF91CF91BF91AF91B4
:102170009F918F912F910F9000925F000F901F9071
:102180001895EE0FFF1F0590F491E02D0994F89437
:02219000FFCF7F
:00000001FF
